{
  "contractName": "GameMoney",
  "abi": [
    {
      "inputs": [],
      "payable": false,
      "stateMutability": "nonpayable",
      "type": "constructor"
    },
    {
      "constant": true,
      "inputs": [
        {
          "internalType": "uint256",
          "name": "",
          "type": "uint256"
        }
      ],
      "name": "lobbies",
      "outputs": [
        {
          "internalType": "uint256",
          "name": "lobby_id",
          "type": "uint256"
        },
        {
          "internalType": "uint256",
          "name": "buy_in",
          "type": "uint256"
        },
        {
          "internalType": "uint256",
          "name": "rake",
          "type": "uint256"
        },
        {
          "internalType": "uint8",
          "name": "num_players",
          "type": "uint8"
        },
        {
          "internalType": "uint256",
          "name": "start_date",
          "type": "uint256"
        },
        {
          "internalType": "uint256",
          "name": "game_time",
          "type": "uint256"
        },
        {
          "internalType": "uint8",
          "name": "num_accepted",
          "type": "uint8"
        },
        {
          "internalType": "uint8",
          "name": "num_curr_players",
          "type": "uint8"
        },
        {
          "internalType": "enum GameMoney.GameStates",
          "name": "status",
          "type": "uint8"
        }
      ],
      "payable": false,
      "stateMutability": "view",
      "type": "function"
    },
    {
      "constant": true,
      "inputs": [
        {
          "internalType": "address",
          "name": "",
          "type": "address"
        }
      ],
      "name": "player_deposits",
      "outputs": [
        {
          "internalType": "uint256",
          "name": "",
          "type": "uint256"
        }
      ],
      "payable": false,
      "stateMutability": "view",
      "type": "function"
    },
    {
      "constant": true,
      "inputs": [
        {
          "internalType": "address",
          "name": "",
          "type": "address"
        }
      ],
      "name": "player_locked_funds",
      "outputs": [
        {
          "internalType": "uint256",
          "name": "",
          "type": "uint256"
        }
      ],
      "payable": false,
      "stateMutability": "view",
      "type": "function"
    },
    {
      "constant": false,
      "inputs": [
        {
          "internalType": "uint256",
          "name": "lobby_id",
          "type": "uint256"
        },
        {
          "internalType": "uint256",
          "name": "buy_in",
          "type": "uint256"
        },
        {
          "internalType": "uint256",
          "name": "rake",
          "type": "uint256"
        },
        {
          "internalType": "uint8",
          "name": "num_players",
          "type": "uint8"
        },
        {
          "internalType": "uint256",
          "name": "start_date",
          "type": "uint256"
        },
        {
          "internalType": "uint256",
          "name": "game_time",
          "type": "uint256"
        }
      ],
      "name": "createLobby",
      "outputs": [],
      "payable": false,
      "stateMutability": "nonpayable",
      "type": "function"
    },
    {
      "constant": true,
      "inputs": [
        {
          "internalType": "uint256",
          "name": "lobby_id",
          "type": "uint256"
        }
      ],
      "name": "getBuyInByID",
      "outputs": [
        {
          "internalType": "uint256",
          "name": "",
          "type": "uint256"
        }
      ],
      "payable": false,
      "stateMutability": "view",
      "type": "function"
    },
    {
      "constant": false,
      "inputs": [],
      "name": "deposit",
      "outputs": [],
      "payable": true,
      "stateMutability": "payable",
      "type": "function"
    },
    {
      "constant": true,
      "inputs": [],
      "name": "getBalance",
      "outputs": [
        {
          "internalType": "uint256",
          "name": "",
          "type": "uint256"
        }
      ],
      "payable": false,
      "stateMutability": "view",
      "type": "function"
    },
    {
      "constant": false,
      "inputs": [],
      "name": "withdraw",
      "outputs": [],
      "payable": false,
      "stateMutability": "nonpayable",
      "type": "function"
    },
    {
      "constant": false,
      "inputs": [
        {
          "internalType": "uint256",
          "name": "lobby_id",
          "type": "uint256"
        }
      ],
      "name": "joinLobby",
      "outputs": [],
      "payable": false,
      "stateMutability": "nonpayable",
      "type": "function"
    },
    {
      "constant": false,
      "inputs": [
        {
          "internalType": "uint256",
          "name": "lobby_id",
          "type": "uint256"
        }
      ],
      "name": "acceptGame",
      "outputs": [],
      "payable": false,
      "stateMutability": "nonpayable",
      "type": "function"
    },
    {
      "constant": false,
      "inputs": [
        {
          "internalType": "uint256",
          "name": "lobby_id",
          "type": "uint256"
        },
        {
          "internalType": "address payable",
          "name": "winner",
          "type": "address"
        }
      ],
      "name": "endGame",
      "outputs": [],
      "payable": false,
      "stateMutability": "nonpayable",
      "type": "function"
    }
  ],
  "bytecode": "0x60806040523480156200001157600080fd5b5032600460006101000a81548173ffffffffffffffffffffffffffffffffffffffff021916908373ffffffffffffffffffffffffffffffffffffffff1602179055506200007b6000670de0b6b3a764000066b1a2bc2ec500006003600080620000d260201b60201c565b620000a36001671bc16d674ec8000066b1a2bc2ec500006005600080620000d260201b60201c565b620000cc6002670de0b6b3a764000067016345785d8a0000600a600080620000d260201b60201c565b6200032e565b600460009054906101000a900473ffffffffffffffffffffffffffffffffffffffff1673ffffffffffffffffffffffffffffffffffffffff163273ffffffffffffffffffffffffffffffffffffffff16146200012d57600080fd5b60008060008881526020019081526020016000209050868160000181905550858160010181905550848160020181905550838160030160006101000a81548160ff021916908360ff16021790555060008160060160006101000a81548160ff021916908360ff16021790555082816004018190555081816005018190555060008160080160006101000a81548160ff02191690836003811115620001cd57fe5b021790555060008160060160016101000a81548160ff021916908360ff1602179055508360ff16604051908082528060200260200182016040528015620002235781602001602082028038833980820191505090505b508160070190805190602001906200023d92919062000259565b5060036000815480929190600101919050555050505050505050565b828054828255906000526020600020908101928215620002d5579160200282015b82811115620002d45782518260006101000a81548173ffffffffffffffffffffffffffffffffffffffff021916908373ffffffffffffffffffffffffffffffffffffffff160217905550916020019190600101906200027a565b5b509050620002e49190620002e8565b5090565b6200032b91905b808211156200032757600081816101000a81549073ffffffffffffffffffffffffffffffffffffffff021916905550600101620002ef565b5090565b90565b610e54806200033e6000396000f3fe60806040526004361061009c5760003560e01c80636e8fb4c6116100645780636e8fb4c6146101e85780638024a6171461028f57806386514131146102ff578063aeb6672e1461035a578063d0e30db0146103a9578063e9173b3a146103b35761009c565b806312065fe0146100a15780633ccfd60b146100cc5780634b9c70a0146100e357806355dc89ff14610148578063605bd5ff146101ad575b600080fd5b3480156100ad57600080fd5b506100b66103ee565b6040518082815260200191505060405180910390f35b3480156100d857600080fd5b506100e1610435565b005b3480156100ef57600080fd5b506101326004803603602081101561010657600080fd5b81019080803573ffffffffffffffffffffffffffffffffffffffff169060200190929190505050610510565b6040518082815260200191505060405180910390f35b34801561015457600080fd5b506101976004803603602081101561016b57600080fd5b81019080803573ffffffffffffffffffffffffffffffffffffffff169060200190929190505050610528565b6040518082815260200191505060405180910390f35b3480156101b957600080fd5b506101e6600480360360208110156101d057600080fd5b8101908080359060200190929190505050610540565b005b3480156101f457600080fd5b506102216004803603602081101561020b57600080fd5b8101908080359060200190929190505050610731565b604051808a81526020018981526020018881526020018760ff1660ff1681526020018681526020018581526020018460ff1660ff1681526020018360ff1660ff16815260200182600381111561027357fe5b60ff168152602001995050505050505050505060405180910390f35b34801561029b57600080fd5b506102fd600480360360c08110156102b257600080fd5b81019080803590602001909291908035906020019092919080359060200190929190803560ff16906020019092919080359060200190929190803590602001909291905050506107b3565b005b34801561030b57600080fd5b506103586004803603604081101561032257600080fd5b8101908080359060200190929190803573ffffffffffffffffffffffffffffffffffffffff169060200190929190505050610935565b005b34801561036657600080fd5b506103936004803603602081101561037d57600080fd5b8101908080359060200190929190505050610a4d565b6040518082815260200191505060405180910390f35b6103b1610a6c565b005b3480156103bf57600080fd5b506103ec600480360360208110156103d657600080fd5b8101908080359060200190929190505050610abb565b005b6000600160003273ffffffffffffffffffffffffffffffffffffffff1673ffffffffffffffffffffffffffffffffffffffff16815260200190815260200160002054905090565b6000600160003273ffffffffffffffffffffffffffffffffffffffff1673ffffffffffffffffffffffffffffffffffffffff1681526020019081526020016000205490503273ffffffffffffffffffffffffffffffffffffffff166108fc829081150290604051600060405180830381858888f193505050501580156104bf573d6000803e3d6000fd5b5080600160003273ffffffffffffffffffffffffffffffffffffffff1673ffffffffffffffffffffffffffffffffffffffff1681526020019081526020016000206000828254039250508190555050565b60016020528060005260406000206000915090505481565b60026020528060005260406000206000915090505481565b610548610ceb565b600080838152602001908152602001600020604051806101400160405290816000820154815260200160018201548152602001600282015481526020016003820160009054906101000a900460ff1660ff1660ff16815260200160048201548152602001600582015481526020016006820160009054906101000a900460ff1660ff1660ff1681526020016006820160019054906101000a900460ff1660ff1660ff1681526020016007820180548060200260200160405190810160405280929190818152602001828054801561067457602002820191906000526020600020905b8160009054906101000a900473ffffffffffffffffffffffffffffffffffffffff1673ffffffffffffffffffffffffffffffffffffffff168152602001906001019080831161062a575b505050505081526020016008820160009054906101000a900460ff16600381111561069b57fe5b60038111156106a657fe5b815250509050806060015160ff168160e0015160ff16146106c657600080fd5b8060200151600260003273ffffffffffffffffffffffffffffffffffffffff1673ffffffffffffffffffffffffffffffffffffffff168152602001908152602001600020600082825403925050819055508060c001805180919060010160ff1660ff16815250505050565b60006020528060005260406000206000915090508060000154908060010154908060020154908060030160009054906101000a900460ff16908060040154908060050154908060060160009054906101000a900460ff16908060060160019054906101000a900460ff16908060080160009054906101000a900460ff16905089565b600460009054906101000a900473ffffffffffffffffffffffffffffffffffffffff1673ffffffffffffffffffffffffffffffffffffffff163273ffffffffffffffffffffffffffffffffffffffff161461080d57600080fd5b60008060008881526020019081526020016000209050868160000181905550858160010181905550848160020181905550838160030160006101000a81548160ff021916908360ff16021790555060008160060160006101000a81548160ff021916908360ff16021790555082816004018190555081816005018190555060008160080160006101000a81548160ff021916908360038111156108ac57fe5b021790555060008160060160016101000a81548160ff021916908360ff1602179055508360ff166040519080825280602002602001820160405280156109015781602001602082028038833980820191505090505b50816007019080519060200190610919929190610d52565b5060036000815480929190600101919050555050505050505050565b600460009054906101000a900473ffffffffffffffffffffffffffffffffffffffff1673ffffffffffffffffffffffffffffffffffffffff163273ffffffffffffffffffffffffffffffffffffffff161461098f57600080fd5b8073ffffffffffffffffffffffffffffffffffffffff166108fc60008085815260200190815260200160002060060160009054906101000a900460ff1660ff1660008086815260200190815260200160002060010154029081150290604051600060405180830381858888f19350505050158015610a11573d6000803e3d6000fd5b50600260008084815260200190815260200160002060080160006101000a81548160ff02191690836003811115610a4457fe5b02179055505050565b6000806000838152602001908152602001600020600101549050919050565b34600160003273ffffffffffffffffffffffffffffffffffffffff1673ffffffffffffffffffffffffffffffffffffffff16815260200190815260200160002060008282540192505081905550565b60008082815260200190815260200160002060010154600160003273ffffffffffffffffffffffffffffffffffffffff1673ffffffffffffffffffffffffffffffffffffffff1681526020019081526020016000205411610b1b57600080fd5b60008082815260200190815260200160002060060160019054906101000a900460ff1660ff1660008083815260200190815260200160002060030160009054906101000a900460ff1660ff1611610b7157600080fd5b60008082815260200190815260200160002060010154600160003273ffffffffffffffffffffffffffffffffffffffff1673ffffffffffffffffffffffffffffffffffffffff1681526020019081526020016000206000828254039250508190555060008082815260200190815260200160002060010154600260003273ffffffffffffffffffffffffffffffffffffffff1673ffffffffffffffffffffffffffffffffffffffff168152602001908152602001600020600082825401925050819055506000806000838152602001908152602001600020600601600181819054906101000a900460ff1660010191906101000a81548160ff021916908360ff16021790559050326000808481526020019081526020016000206007016001830360ff1681548110610c9f57fe5b9060005260206000200160006101000a81548173ffffffffffffffffffffffffffffffffffffffff021916908373ffffffffffffffffffffffffffffffffffffffff1602179055505050565b604051806101400160405280600081526020016000815260200160008152602001600060ff1681526020016000815260200160008152602001600060ff168152602001600060ff1681526020016060815260200160006003811115610d4c57fe5b81525090565b828054828255906000526020600020908101928215610dcb579160200282015b82811115610dca5782518260006101000a81548173ffffffffffffffffffffffffffffffffffffffff021916908373ffffffffffffffffffffffffffffffffffffffff16021790555091602001919060010190610d72565b5b509050610dd89190610ddc565b5090565b610e1c91905b80821115610e1857600081816101000a81549073ffffffffffffffffffffffffffffffffffffffff021916905550600101610de2565b5090565b9056fea265627a7a72315820e6e53281ad721e5f1663d363eb85ef6776e963662ee4a5d44fe8d37612b40f4364736f6c63430005100032",
  "source": "// SPDX-License-Identifier: MIT\npragma solidity >=0.4.21 <8.10.0;\n\ncontract GameMoney {\n    enum GameStates {\n        WAITING,\n        STARTED,\n        DONE,\n        CANCELLED\n    }\n\n    struct Lobby {\n        uint256 lobby_id;\n        uint256 buy_in;\n        uint256 rake;\n        uint8 num_players;\n        uint256 start_date;\n        uint256 game_time;\n        uint8 num_accepted;\n        uint8 num_curr_players;\n        address[] players;\n        GameStates status;\n    }\n\n    mapping(uint256 => Lobby) public lobbies;\n    mapping(address => uint256) public player_deposits;\n    mapping(address => uint256) public player_locked_funds;\n    uint256 num_lobbies;\n    address admin;\n\n    constructor() public {\n        admin = tx.origin;\n\n        // test lobbies\n        createLobby(0, 1000000000000000000, 50000000000000000, 3, 0, 0);\n        createLobby(1, 2000000000000000000, 50000000000000000, 5, 0, 0);\n        createLobby(2, 1000000000000000000, 100000000000000000, 10, 0, 0);\n    }\n\n    modifier onlyAdmin() {\n        require(tx.origin == admin);\n        _;\n    }\n\n    function createLobby(\n        uint256 lobby_id,\n        uint256 buy_in,\n        uint256 rake,\n        uint8 num_players,\n        uint256 start_date,\n        uint256 game_time\n    ) public onlyAdmin {\n        Lobby storage l = lobbies[lobby_id];\n        l.lobby_id = lobby_id;\n        l.buy_in = buy_in;\n        l.rake = rake;\n        l.num_players = num_players;\n        l.num_accepted = 0;\n        l.start_date = start_date;\n        l.game_time = game_time;\n        l.status = GameStates.WAITING;\n        l.num_curr_players = 0;\n        l.players = new address[](num_players);\n        num_lobbies++;\n    }\n\n    function getBuyInByID(uint256 lobby_id) public view returns (uint256) {\n        return lobbies[lobby_id].buy_in;\n    }\n\n    function deposit() public payable {\n        player_deposits[tx.origin] += msg.value;\n    }\n\n    function getBalance() public view returns (uint256) {\n        return player_deposits[tx.origin];\n    }\n\n    function withdraw() public {\n        uint256 player_deposit = player_deposits[tx.origin];\n        tx.origin.transfer(player_deposit);\n        player_deposits[tx.origin] -= player_deposit;\n    }\n\n    function joinLobby(uint256 lobby_id) public {\n        require(player_deposits[tx.origin] > lobbies[lobby_id].buy_in);\n        require(lobbies[lobby_id].num_players > lobbies[lobby_id].num_curr_players);\n\n        player_deposits[tx.origin] -= lobbies[lobby_id].buy_in;\n        player_locked_funds[tx.origin] += lobbies[lobby_id].buy_in;\n\n        uint8 x = ++lobbies[lobby_id].num_curr_players;\n        lobbies[lobby_id].players[x - 1] = tx.origin;\n    }\n\n    function acceptGame(uint256 lobby_id) public {\n        Lobby memory lobby = lobbies[lobby_id];\n        require(lobby.num_curr_players == lobby.num_players);\n\n        player_locked_funds[tx.origin] -= lobby.buy_in;\n        lobby.num_accepted++;\n    }\n\n    function endGame(uint256 lobby_id, address payable winner) public onlyAdmin {\n        winner.transfer(lobbies[lobby_id].buy_in * lobbies[lobby_id].num_accepted);\n        lobbies[lobby_id].status = GameStates.DONE;\n    }\n}\n",
  "sourcePath": "/Users/yvesshum/Documents/work/hackathons/uncommonhacks2022/contracts/GameMoney.sol",
  "compiler": {
    "name": "solc",
    "version": "0.5.16+commit.9c3226ce.Emscripten.clang"
  },
  "schemaVersion": "3.4.6",
  "updatedAt": "2022-04-03T09:25:03.987Z",
  "networkType": "ethereum",
  "devdoc": {
    "methods": {}
  },
  "userdoc": {
    "methods": {}
  }
}