{
  "contractName": "GameMoney",
  "abi": [
    {
      "inputs": [],
      "payable": false,
      "stateMutability": "nonpayable",
      "type": "constructor"
    },
    {
      "constant": false,
      "inputs": [
        {
          "internalType": "address",
          "name": "lobby_id",
          "type": "address"
        },
        {
          "internalType": "uint256",
          "name": "buy_in",
          "type": "uint256"
        },
        {
          "internalType": "uint256",
          "name": "rake",
          "type": "uint256"
        },
        {
          "internalType": "uint8",
          "name": "num_players",
          "type": "uint8"
        },
        {
          "internalType": "uint256",
          "name": "start_date",
          "type": "uint256"
        },
        {
          "internalType": "uint256",
          "name": "game_time",
          "type": "uint256"
        }
      ],
      "name": "createLobby",
      "outputs": [],
      "payable": false,
      "stateMutability": "nonpayable",
      "type": "function"
    },
    {
      "constant": true,
      "inputs": [
        {
          "internalType": "address",
          "name": "lobby_id",
          "type": "address"
        }
      ],
      "name": "getBuyInByID",
      "outputs": [
        {
          "internalType": "uint256",
          "name": "",
          "type": "uint256"
        }
      ],
      "payable": false,
      "stateMutability": "view",
      "type": "function"
    },
    {
      "constant": false,
      "inputs": [],
      "name": "deposit",
      "outputs": [],
      "payable": true,
      "stateMutability": "payable",
      "type": "function"
    },
    {
      "constant": true,
      "inputs": [],
      "name": "getBalance",
      "outputs": [
        {
          "internalType": "uint256",
          "name": "",
          "type": "uint256"
        }
      ],
      "payable": false,
      "stateMutability": "view",
      "type": "function"
    },
    {
      "constant": false,
      "inputs": [],
      "name": "withdraw",
      "outputs": [],
      "payable": false,
      "stateMutability": "nonpayable",
      "type": "function"
    },
    {
      "constant": false,
      "inputs": [
        {
          "internalType": "address",
          "name": "lobby_id",
          "type": "address"
        }
      ],
      "name": "joinLobby",
      "outputs": [],
      "payable": false,
      "stateMutability": "nonpayable",
      "type": "function"
    },
    {
      "constant": false,
      "inputs": [
        {
          "internalType": "address",
          "name": "lobby_id",
          "type": "address"
        }
      ],
      "name": "acceptGame",
      "outputs": [],
      "payable": false,
      "stateMutability": "nonpayable",
      "type": "function"
    },
    {
      "constant": false,
      "inputs": [
        {
          "internalType": "address",
          "name": "lobby_id",
          "type": "address"
        },
        {
          "internalType": "address payable",
          "name": "winner",
          "type": "address"
        }
      ],
      "name": "endGame",
      "outputs": [],
      "payable": false,
      "stateMutability": "nonpayable",
      "type": "function"
    }
  ],
  "bytecode": "0x608060405234801561001057600080fd5b5033600460006101000a81548173ffffffffffffffffffffffffffffffffffffffff021916908373ffffffffffffffffffffffffffffffffffffffff160217905550610ef8806100616000396000f3fe60806040526004361061007b5760003560e01c80638b7d12181161004e5780638b7d121814610198578063b4b4c3e3146101e9578063c058d4a71461026f578063d0e30db0146102c05761007b565b806312065fe0146100805780631f7ff15d146100ab5780633ccfd60b146101105780634e0f4d2614610127575b600080fd5b34801561008c57600080fd5b506100956102ca565b6040518082815260200191505060405180910390f35b3480156100b757600080fd5b506100fa600480360360208110156100ce57600080fd5b81019080803573ffffffffffffffffffffffffffffffffffffffff169060200190929190505050610311565b6040518082815260200191505060405180910390f35b34801561011c57600080fd5b5061012561035c565b005b34801561013357600080fd5b506101966004803603604081101561014a57600080fd5b81019080803573ffffffffffffffffffffffffffffffffffffffff169060200190929190803573ffffffffffffffffffffffffffffffffffffffff169060200190929190505050610437565b005b3480156101a457600080fd5b506101e7600480360360208110156101bb57600080fd5b81019080803573ffffffffffffffffffffffffffffffffffffffff169060200190929190505050610570565b005b3480156101f557600080fd5b5061026d600480360360c081101561020c57600080fd5b81019080803573ffffffffffffffffffffffffffffffffffffffff1690602001909291908035906020019092919080359060200190929190803560ff16906020019092919080359060200190929190803590602001909291905050506107d9565b005b34801561027b57600080fd5b506102be6004803603602081101561029257600080fd5b81019080803573ffffffffffffffffffffffffffffffffffffffff1690602001909291905050506109c1565b005b6102c8610d2a565b005b6000600160003373ffffffffffffffffffffffffffffffffffffffff1673ffffffffffffffffffffffffffffffffffffffff16815260200190815260200160002054905090565b60008060008373ffffffffffffffffffffffffffffffffffffffff1673ffffffffffffffffffffffffffffffffffffffff168152602001908152602001600020600101549050919050565b6000600160003373ffffffffffffffffffffffffffffffffffffffff1673ffffffffffffffffffffffffffffffffffffffff1681526020019081526020016000205490503373ffffffffffffffffffffffffffffffffffffffff166108fc829081150290604051600060405180830381858888f193505050501580156103e6573d6000803e3d6000fd5b5080600160003373ffffffffffffffffffffffffffffffffffffffff1673ffffffffffffffffffffffffffffffffffffffff1681526020019081526020016000206000828254039250508190555050565b600460009054906101000a900473ffffffffffffffffffffffffffffffffffffffff1673ffffffffffffffffffffffffffffffffffffffff163373ffffffffffffffffffffffffffffffffffffffff161461049157600080fd5b8073ffffffffffffffffffffffffffffffffffffffff166108fc6000808573ffffffffffffffffffffffffffffffffffffffff1673ffffffffffffffffffffffffffffffffffffffff16815260200190815260200160002060060160009054906101000a900460ff1660ff166000808673ffffffffffffffffffffffffffffffffffffffff1673ffffffffffffffffffffffffffffffffffffffff16815260200190815260200160002060010154029081150290604051600060405180830381858888f1935050505015801561056b573d6000803e3d6000fd5b505050565b610578610d79565b6000808373ffffffffffffffffffffffffffffffffffffffff1673ffffffffffffffffffffffffffffffffffffffff168152602001908152602001600020604051806101400160405290816000820160009054906101000a900473ffffffffffffffffffffffffffffffffffffffff1673ffffffffffffffffffffffffffffffffffffffff1673ffffffffffffffffffffffffffffffffffffffff16815260200160018201548152602001600282015481526020016003820160009054906101000a900460ff1660ff1660ff16815260200160048201548152602001600582015481526020016006820160009054906101000a900460ff1660ff1660ff1681526020016006820160019054906101000a900460ff1660ff1660ff1681526020016007820180548060200260200160405190810160405280929190818152602001828054801561071c57602002820191906000526020600020905b8160009054906101000a900473ffffffffffffffffffffffffffffffffffffffff1673ffffffffffffffffffffffffffffffffffffffff16815260200190600101908083116106d2575b505050505081526020016008820160009054906101000a900460ff16600381111561074357fe5b600381111561074e57fe5b815250509050806060015160ff168160e0015160ff161461076e57600080fd5b8060200151600260003373ffffffffffffffffffffffffffffffffffffffff1673ffffffffffffffffffffffffffffffffffffffff168152602001908152602001600020600082825403925050819055508060c001805180919060010160ff1660ff16815250505050565b600460009054906101000a900473ffffffffffffffffffffffffffffffffffffffff1673ffffffffffffffffffffffffffffffffffffffff163373ffffffffffffffffffffffffffffffffffffffff161461083357600080fd5b60008060008873ffffffffffffffffffffffffffffffffffffffff1673ffffffffffffffffffffffffffffffffffffffff1681526020019081526020016000209050868160000160006101000a81548173ffffffffffffffffffffffffffffffffffffffff021916908373ffffffffffffffffffffffffffffffffffffffff160217905550858160010181905550848160020181905550838160030160006101000a81548160ff021916908360ff16021790555060008160060160006101000a81548160ff021916908360ff16021790555082816004018190555081816005018190555060008160080160006101000a81548160ff0219169083600381111561093857fe5b021790555060008160060160016101000a81548160ff021916908360ff1602179055508360ff1660405190808252806020026020018201604052801561098d5781602001602082028038833980820191505090505b508160070190805190602001906109a5929190610df6565b5060036000815480929190600101919050555050505050505050565b6000808273ffffffffffffffffffffffffffffffffffffffff1673ffffffffffffffffffffffffffffffffffffffff16815260200190815260200160002060010154600160003373ffffffffffffffffffffffffffffffffffffffff1673ffffffffffffffffffffffffffffffffffffffff1681526020019081526020016000205411610a4d57600080fd5b6000808273ffffffffffffffffffffffffffffffffffffffff1673ffffffffffffffffffffffffffffffffffffffff16815260200190815260200160002060060160019054906101000a900460ff1660ff166000808373ffffffffffffffffffffffffffffffffffffffff1673ffffffffffffffffffffffffffffffffffffffff16815260200190815260200160002060030160009054906101000a900460ff1660ff1611610afb57600080fd5b6000808273ffffffffffffffffffffffffffffffffffffffff1673ffffffffffffffffffffffffffffffffffffffff16815260200190815260200160002060010154600160003373ffffffffffffffffffffffffffffffffffffffff1673ffffffffffffffffffffffffffffffffffffffff168152602001908152602001600020600082825403925050819055506000808273ffffffffffffffffffffffffffffffffffffffff1673ffffffffffffffffffffffffffffffffffffffff16815260200190815260200160002060010154600260003373ffffffffffffffffffffffffffffffffffffffff1673ffffffffffffffffffffffffffffffffffffffff1681526020019081526020016000206000828254019250508190555060008060008373ffffffffffffffffffffffffffffffffffffffff1673ffffffffffffffffffffffffffffffffffffffff168152602001908152602001600020600601600181819054906101000a900460ff168092919060010191906101000a81548160ff021916908360ff1602179055509050336000808473ffffffffffffffffffffffffffffffffffffffff1673ffffffffffffffffffffffffffffffffffffffff1681526020019081526020016000206007016001830360ff1681548110610cde57fe5b9060005260206000200160006101000a81548173ffffffffffffffffffffffffffffffffffffffff021916908373ffffffffffffffffffffffffffffffffffffffff1602179055505050565b34600160003373ffffffffffffffffffffffffffffffffffffffff1673ffffffffffffffffffffffffffffffffffffffff16815260200190815260200160002060008282540192505081905550565b604051806101400160405280600073ffffffffffffffffffffffffffffffffffffffff1681526020016000815260200160008152602001600060ff1681526020016000815260200160008152602001600060ff168152602001600060ff1681526020016060815260200160006003811115610df057fe5b81525090565b828054828255906000526020600020908101928215610e6f579160200282015b82811115610e6e5782518260006101000a81548173ffffffffffffffffffffffffffffffffffffffff021916908373ffffffffffffffffffffffffffffffffffffffff16021790555091602001919060010190610e16565b5b509050610e7c9190610e80565b5090565b610ec091905b80821115610ebc57600081816101000a81549073ffffffffffffffffffffffffffffffffffffffff021916905550600101610e86565b5090565b9056fea265627a7a723158203a63017c51d6a7e85e01f651a32cfdbf66e990be521e706af650699d2a02b83764736f6c63430005100032",
  "source": "// SPDX-License-Identifier: MIT\npragma solidity >=0.4.21 <8.10.0;\n\ncontract GameMoney {\n    enum GameStates {\n        WAITING,\n        STARTED,\n        DONE,\n        CANCELLED\n    }\n\n    struct Lobby {\n        address lobby_id;\n        uint256 buy_in;\n        uint256 rake;\n        uint8 num_players;\n        uint256 start_date;\n        uint256 game_time;\n        uint8 num_accepted;\n        uint8 num_curr_players;\n        address[] players;\n        GameStates status;\n    }\n\n    mapping(address => Lobby) lobbies;\n    mapping(address => uint256) player_deposits;\n    mapping(address => uint256) player_locked_funds;\n    uint256 num_lobbies;\n    address admin;\n\n    constructor() public {\n        admin = msg.sender;\n    }\n\n    modifier onlyAdmin() {\n        require(msg.sender == admin);\n        _;\n    }\n\n    function createLobby(\n        address lobby_id,\n        uint256 buy_in,\n        uint256 rake,\n        uint8 num_players,\n        uint256 start_date,\n        uint256 game_time\n    ) public onlyAdmin {\n        Lobby storage l = lobbies[lobby_id];\n        l.lobby_id = lobby_id;\n        l.buy_in = buy_in;\n        l.rake = rake;\n        l.num_players = num_players;\n        l.num_accepted = 0;\n        l.start_date = start_date;\n        l.game_time = game_time;\n        l.status = GameStates.WAITING;\n        l.num_curr_players = 0;\n        l.players = new address[](num_players);\n        num_lobbies++;\n    }\n\n    function getBuyInByID(address lobby_id) public view returns (uint256) {\n        return lobbies[lobby_id].buy_in;\n    }\n\n    function deposit() public payable {\n        player_deposits[msg.sender] += msg.value;\n    }\n\n    function getBalance() public view returns (uint256) {\n        return player_deposits[msg.sender];\n    }\n\n    function withdraw() public {\n        uint256 player_deposit = player_deposits[msg.sender];\n        address(msg.sender).transfer(player_deposit);\n        player_deposits[msg.sender] -= player_deposit;\n    }\n\n    function joinLobby(address lobby_id) public {\n        require(player_deposits[msg.sender] > lobbies[lobby_id].buy_in);\n        require(\n            lobbies[lobby_id].num_players > lobbies[lobby_id].num_curr_players\n        );\n\n        player_deposits[msg.sender] -= lobbies[lobby_id].buy_in;\n        player_locked_funds[msg.sender] += lobbies[lobby_id].buy_in;\n\n        uint8 x = lobbies[lobby_id].num_curr_players++;\n        lobbies[lobby_id].players[x - 1] = msg.sender;\n    }\n\n    function acceptGame(address lobby_id) public {\n        Lobby memory lobby = lobbies[lobby_id];\n        require(lobby.num_curr_players == lobby.num_players);\n\n        player_locked_funds[msg.sender] -= lobby.buy_in;\n        lobby.num_accepted++;\n    }\n\n    function endGame(address lobby_id, address payable winner)\n        public\n        onlyAdmin\n    {\n        winner.transfer(\n            lobbies[lobby_id].buy_in * lobbies[lobby_id].num_accepted\n        );\n    }\n}\n",
  "sourcePath": "/Users/yvesshum/Documents/work/hackathons/uncommonhacks2022/contracts/GameMoney.sol",
  "compiler": {
    "name": "solc",
    "version": "0.5.16+commit.9c3226ce.Emscripten.clang"
  },
  "schemaVersion": "3.4.6",
  "updatedAt": "2022-04-03T03:21:44.951Z",
  "networkType": "ethereum",
  "devdoc": {
    "methods": {}
  },
  "userdoc": {
    "methods": {}
  }
}